:020000040800F2
:100000009018002065020008D72C00086120000825
:10001000D52C00082704000821300008000000004B
:10002000000000000000000000000000CD010008FA
:10003000590400080000000011020008E12C00082B
:100040007F0200087F0200087F0200087F0200088C
:100050007F0200087F0200087F0200087F0200087C
:100060007F0200087F0200087F0200087F0200086C
:100070007F0200087F0200082904000835040008F8
:10008000410400084D0400087F0200087F020008B8
:100090007F0200087F0200087F0200087F0200083C
:1000A0007F0200087F0200087F0200087F0200082C
:1000B0007F0200087F0200087F020008712000080C
:1000C000652000087F0200087F0200087F02000808
:1000D0007F02000809300008153000087F02000880
:1000E0007F0200087F0200087F0200087F020008EC
:1000F0007F0200087F0200087F0200087F020008DC
:100100007F0200087F0200087F0200087F020008CB
:100110007F0200087F0200087F020008892D000886
:100120007F0200087F0200087F0200087F020008AB
:1001300000F002F800F03AF80AA090E8000C8244BF
:100140008344AAF10107DA4501D100F02FF8AFF29C
:10015000090EBAE80F0013F0010F18BFFB1A43F0A5
:1001600001031847E0390000003A0000103A24BFAC
:1001700078C878C1FAD8520724BF30C830C144BF0C
:1001800004680C607047000000230024002500264E
:10019000103A28BF78C1FBD8520728BF30C148BFEA
:1001A0000B6070471FB51FBD10B510BD00F0D6F82D
:1001B0001146FFF7F7FF02F044FF00F0F4F803B434
:1001C000FFF7F2FF03BC00F0FBF80000224B1968B8
:1001D0000868B0E8F00F80F30988BFF36F8F4FF025
:1001E000000080F311884EF00D0E704700000000F3
:1001F00006480068006880F3088862B661B6BFF3FD
:100200004F8FBFF36F8F00DF00BF00BF08ED00E02E
:10021000EFF30980BFF36F8F0F4B1A6820E9F00FDF
:10022000106008B54FF0500080F31188BFF34F8F76
:10023000BFF36F8F03F0A8FA4FF0000080F311882E
:10024000BDE8084019680868B0E8F00F80F3098835
:10025000BFF36F8F704700BF18000020EFF30580D9
:10026000704700000948804709480047FEE7FEE75D
:10027000FEE7FEE7FEE7FEE7FEE7FEE7FEE7FEE756
:1002800004480549054A064B70470000872D0008C1
:1002900031010008901200209018002090140020D6
:1002A0009014002010B5203AC0F00B80B1E818502F
:1002B000203AA0E81850B1E81850A0E81850BFF450
:1002C000F5AF5FEA027C24BFB1E81850A0E81850EF
:1002D00044BF18C918C0BDE810405FEA827C24BF43
:1002E00051F8043B40F8043B08BF7047D20728BFD1
:1002F00031F8023B48BF11F8012B28BF20F8023B20
:1003000048BF00F8012B70474FF0000200B51346BC
:1003100094469646203922BFA0E80C50A0E80C5025
:10032000B1F12001BFF4F7AF090728BFA0E80C50D6
:1003300048BF0CC05DF804EB890028BF40F8042BCF
:1003400008BF704748BF20F8022B11F0804F18BF3C
:1003500000F8012B7047704770477047754600F0F2
:100360002BF8AE4605006946534620F00700854647
:1003700018B020B5FFF784FFBDE820404FF000061D
:100380004FF000074FF000084FF0000B21F007017D
:10039000AC46ACE8C009ACE8C009ACE8C009ACE8C0
:1003A000C0098D46704710B50446AFF30080204663
:1003B000BDE81040FFF703BF00487047301200202F
:1003C00001491820ABBEFEE726000200704700007E
:1003D00070B5044600688168C943C90717D18168B0
:1003E00021F00101816000F0A1FC05460AE000BF98
:1003F00000F09CFC401B022804D920688068C043A0
:10040000C00706D020688068C043C007F0D0002035
:1004100070BDA06A40F01000A062E06A40F00100E8
:10042000E062012070BDFEE7014800F013BA000051
:100430002C040020014800F00DBA0000E803002061
:10044000014800F007BA000070040020014800F0E5
:1004500001BA0000B4040020704772B6FEE7000045
:10046000F8B50024009490F824202546012A12D0E3
:10047000012280F824204A681F23072A0DD206682B
:10048000776B521E02EB820293409F430B689340AE
:100490001F43776319E00220F8BD06680D2A0AD2CF
:1004A000376BD21F02EB820293409F430B6893404D
:1004B0001F43376309E0F76A0D3A02EB820293406B
:1004C0009F430B6893401F43F7620A68072306683F
:1004D0000A2A0AD3F7680A3A02EB420293409F4382
:1004E0008B6893401F43F76008E0376902EB4202D4
:1004F00093409F438B6893401F4337610A68102ADB
:1005000001D0112A20D1124B02689A4217D1936868
:100510001B0219D4936843F40003936009681029FF
:1005200012D10C490C4A0968B1FBF2F101EB8101CF
:10053000490000E0491E00910029FBD104E0816AD6
:1005400041F020018162012480F824502046F8BD4A
:10055000002401401400002040420F002DE9F0412A
:1005600004004FF000057FD0A06A002628B9E6629B
:1005700084F82460204600F081F82046FFF728FF29
:10058000A16AC90600D420B1A06A40F01000A062A0
:100590006AE0A16A21F4885141F00201A162334965
:1005A00023688B42E16904D1B1F5402F01D14FF4AA
:1005B0000021277B4FF4807C41EA470261680A43AF
:1005C000A168614508D0012906D0002194F814E003
:1005D000BEF1010F02D00AE06146F7E7C7B1A76A92
:1005E00047F02007A762E76A47F00107E7625F6804
:1005F00027F469470F435F60236899681C4F3940AF
:1006000011439960A16861450BD0012909D00CE024
:10061000DFF860E0A7690EEB47370F4347F400614E
:10062000E5E7218A0D05A5F580152168CB6A23F43D
:1006300070032B43CB62216889680F4B19409142AC
:1006400008D1E662A16A21F0020141F00101A16234
:10065000BDE8F081A06A20F0020040F01000A06226
:10066000E06A40F00100E0620120F1E7003C014057
:10067000FDF7E1FF00E0FFFFFE0E1FFF00B585B0B4
:100680000021009101910291039100680E49884276
:1006900018D10E48816941F400718161816901F4CA
:1006A00000710491816941F010018161806969469E
:1006B00000F01000049002200090032001900448F4
:1006C00000F02AFA05B000BD0024014000100240ED
:1006D0000010014010B590F821100022022905D029
:1006E0000421816380F82020012010BD01680B687F
:1006F00023F00E030B6001680B6823F001030B600D
:1007000090F84030C46B012101FA03F3636080F874
:10071000211080F82020104610BD00002DE9F05F68
:1007200090F821100024022903D0042181630124C0
:1007300085E001680A6822F00E020A6001680A6812
:1007400022F001020A603F4E3E4FB215DFF8F4C0BE
:10075000DFF8F090DFF8ECA0DFF8E8B0DFF8E4E0D5
:100760000168783F13011502ACF1640CA9F150093E
:10077000AAF13C0AABF1280BAEF1140E4FF480182D
:10078000B14227D9B9420ED0614512D049451DD09A
:10079000514518D0594518D0714501D1424615E050
:1007A000294EB14201D1012210E0274E1436B14248
:1007B00001D110220AE0244E2836B14206D0224A46
:1007C0003C32914201D11A4600E02A461E49091FD7
:1007D0000A602BE0B94213D0614517D0494522D0B9
:1007E00051451DD059451DD0714501D142461AE0F1
:1007F000B14202D14FF0807215E0134EB14201D1E7
:10080000012210E0104E1436B14201D110220AE04C
:100810000D4E2836B14206D00B4A3C32914201D1EE
:100820001A4600E02A46074980394A60012180F8CB
:100830002110002180F82010416B01B1884720462B
:10084000BDE8F09F800002400804024090F82100BB
:10085000704700002DE9F05FC16B0A6801680B6802
:10086000046C4FF0040808FA04F8844D844E854F58
:10087000DFF814C2DFF81492DFF814A2DFF814B224
:10088000DFF814E218EA020F65D05FEA437862D518
:100890000A68920603D40A6822F004020A60DFF8AC
:1008A000F0814FF48062016808F11408130114020A
:1008B000414524D9A9420DD0B1420FD0B9421AD036
:1008C000614515D0494515D0514501D1120312E0BB
:1008D000594501D104220EE0714501D140220AE0C0
:1008E0006D4D1435A94206D06B4A2832914201D190
:1008F0001A4600E022466749091F0A6029E0A9421A
:1009000013D0B14215D0B94220D061451BD0494522
:100910001BD0514502D14FF4800217E0414502D16E
:100920004FF0806212E0594501D104220EE071457A
:1009300001D140220AE0584D1435A94206D0564A4A
:100940002832914201D11A4600E022464B4908392B
:100950004A60C16A71E04FF0020808FA04F818EA28
:10096000020F70D05FEA83786DD50A68920606D4CC
:100970000A6822F00A020A60012180F82110DFF8DB
:1009800010814FF40072016808F114081301140279
:10099000414524D9A9420DD0B1420FD0B9421AD055
:1009A000614515D0494515D0514501D1120312E0DA
:1009B000594501D102220EE0714501D120220AE001
:1009C000354D1435A94206D0334A2832914201D11F
:1009D0001A4600E022462F49091F0A6029E0A94271
:1009E00013D0B14215D0B94220D061451BD0494542
:1009F0001BD0514502D14FF4001217E0414502D1FE
:100A00004FF0007212E0594501D102220EE071450B
:100A100001D120220AE0204D1435A94206D01E4AF9
:100A20002832914201D11A4600E022461349083982
:100A30004A60002180F82010816A00291CD0BDE89E
:100A4000F05F0847FFE70825A540154214D01A07B4
:100A500012D50A6822F00E020A6090F84020C36B9B
:100A6000012101FA02F25A60816380F8211000210D
:100A700080F82010016BE0E7BDE8F09F080002401D
:100A80001C00024030000240440002405800024076
:100A90006C000240080402401C04024030B560B102
:100AA0001A4B026814219A4209D2194B1344B3FB22
:100AB000F1F18900016417490AE0012030BD134BB0
:100AC0005B421344B3FBF1F1890001640F4908391B
:100AD000C163022180F82110136843F6F0718B4343
:100AE000F0E901142143D0E902452C432143046974
:100AF0002143446921438469214319431160002142
:100B00004163012242770177084630BD0804024064
:100B1000F8FFFDBF000002402DE9F84FDFF8C89153
:100B20000024A9F1040B23460F2709F1040AABF1B5
:100B3000040ED1E00125A54006EA0502AA4276D1BD
:100B4000DFF8A8C14E68A6EB0C0866452BD00DDC7B
:100B5000032E34D005DC36B3012E19D0022E2FD14E
:100B60001BE0112E16D0122E2AD119E0B8F5881FDD
:100B700019D006DCB8F5803F15D0B8F5801F1FD11D
:100B800011E0B8F5001F0ED0B8F5041F18D10AE027
:100B9000CB6815E0CB681B1D12E0CB6808330FE073
:100BA000CB680C330CE08B682BB1012B4FF00803A2
:100BB00003D0456104E0042302E0056100E0002366
:100BC000FF2A01D8064601E000F104064FEA840539
:100BD00001D9A5F12005D6F8008007FA05FC28EA1E
:100BE0000C0803FA05F548EA0508C6F800804D68C8
:100BF000ED0070D53E4DAE6946F00106AE61AD69BF
:100C000024F0030605F0010500953A4D06EB050CAE
:100C1000DCF80850A607360F07FA06F825EA08059B
:100C2000DFF8D480404503D14FF0000825E052E0C2
:100C3000DFF8C880404502D14FF001081DE0DFF821
:100C4000C080404502D14FF0020816E0DFF8B480C2
:100C5000404502D14FF003080FE0DFF8AC8040457B
:100C600002D14FF0040808E0DFF8A080404502D12F
:100C70004FF0050801E04FF0060808FA06F848EAC8
:100C80000508CCF808804D68D9F80060ED024D46A3
:100C900001D5164300E096432E604D68DAF80060F7
:100CA000AD02554601D5164300E096432E604D68CF
:100CB000DBF80060AD035D4601D5164300E09643C6
:100CC0002E604D68DEF80060ED03754601D51643D1
:100CD00000E096432E60641C0A681646E2407FF4EA
:100CE00029AFBDE8F88F0000080401400000111092
:100CF000001002400000014000080140000C0140CB
:100D0000001001400014014000180140001C014087
:100D1000C26821EA02030A4043EA024101617047C6
:100D20000AB1016170470904FBE7000001488068CF
:100D30007047000008000020704770472DE9F0411F
:100D4000016804464A694E6890F83E000025D74382
:100D5000FA050BD4F243D20508D46FF48072012552
:100D60004A6121680A6842F400420A60B90508D461
:100D7000F143C90505D422686FF4007145F00205FE
:100D80005161790525D4F143C90522D4638D94F8C6
:100D90003D10226B202808D13BB9212910D02929E8
:100DA0000ED0282901D1212A0AD022686FF480614F
:100DB000516145F00405102806D0402804D008E011
:100DC000204601F05DFD04E02068016841F40071F7
:100DD0000160380508D4F043C00505D421686FF4DC
:100DE000006045F008054861002D07D0206C2843BD
:100DF00020642046BDE8F04101F0A6B9BDE8F081CD
:100E00002DE9F047026800215368C66A90F83E4019
:100E100090F83D50102C12D0402C10D0046C002CB7
:100E20007DD05469E443A6077AD4DE43B60577D46F
:100E3000036C03B19169BDE8F04701F0FDBC97690F
:100E400051694FF42A0CC9435FEAC1784FF02A492F
:100E500004D066452AD04E4528D010E0DE43B605C2
:100E60000DD4C16A614501D1012103E0C16A494540
:100E700001D10821C162BDE8F04701F043BC0E0773
:100E800016D4DE43B60513D4416CC9B21161416B6F
:100E900009B1896A29B9816B002907D0896A0029BB
:100EA00004D00068416841F400614160BDE8F0870A
:100EB0008E0706D4DE43B60503D4BDE8F04701F043
:100EC00075BBFE43526876074FEA02521DD4002AD2
:100ED000ECDB0A0608D4DA43520505D4490705D5E8
:100EE000BDE8F04701F006BB4907DFD4D9438905C7
:100EF000DCD4212D05D0402CD8D1BDE8F04701F03D
:100F000047BCBDE8F04701F0B3BA002ACEDB4A0681
:100F10000BD4DA43520508D4490708D501E00DE0A7
:100F20000EE0BDE8F04701F029BA4907BED4D94325
:100F30008905BBD4BDE8F04701F0B2B9916970E70B
:100F4000E10606D4D943890503D4BDE8F04701F092
:100F5000DFBC2821212D27D0292D25D0650655D489
:100F6000DD436D0552D4640752D590F83D30448D71
:100F7000002C9BD01269446A2270426A521C426261
:100F8000428D521E4285428D002A8FD12A2B8DD14F
:100F90000268536823F4806353602222026380F85E
:100FA0003D1000F04FF981E7250623D4DD436D05A0
:100FB00020D4640720D590F83D30448D002CF2D029
:100FC000446A24781461426A521C4262428D521E65
:100FD0004285428D002AE6D1292BE4D1026853686C
:100FE00023F4806353602122026380F83D1000F0F7
:100FF0002AF95BE76107D6D4D9438905D3D4418D5B
:101000000029D0D0416A097811610AE06107CAD489
:10101000D9438905C7D4418D0029C4D01169426ADA
:101020001170416A491C4162418D491E41853DE76D
:101030007047000070B5040025D094F83D000025ED
:1010400020B984F83C50204600F0BEF8242084F8F3
:101050003D002068016821F00101016020680168FD
:1010600041F4004101602068016821F40041016001
:1010700000F0E0FA4D4A6168914201D84C4900E025
:101080004C49884201D2012070BD4B492368B0FB16
:10109000F1F15E6826F03F060E435E60636893429E
:1010A00006D94FF4967359434FF47A73B1FBF3F1B9
:1010B0002368491C1E6A26F03F06314319626168A5
:1010C000914210D84900401EB0FBF1F2521CC2F30D
:1010D0000B02042A01D2042022E0B0FBF1F0401CF4
:1010E000C0F30B001CE0A268F2B301EBC10303EBF9
:1010F0000116431EB3FBF6F35B1C43F480431B0550
:1011000049D092B301EBC10202EB0111401EB0FBCA
:10111000F1F0401CC0F30B0040F4804040F400406C
:101120002168CA694CF6FF739A431043C861D4E939
:10113000071001432068026822F0C00211430160D9
:10114000D4E9030101432068826848F2FF339A43DF
:1011500011438160D4E9050108432168CA6822F07F
:10116000FF021043C86001E00EE016E0206801684D
:1011700041F0010101602564202084F83D002563D1
:1011800084F83E50002070BD01EB4106431EB3FBC6
:10119000F6F35B1CB3E70120C2E701EB4101401EFF
:1011A000B0FBF1F0401CC0F30B00B7E7A0860100D4
:1011B00080841E0000093D0040420F0070477047C8
:1011C000704770477047000010B586B0002100914D
:1011D0000191029103910068174988422AD1174C66
:1011E000A06940F00800A061A069694600F008000D
:1011F0000490C0200090122001900320039010481A
:10120000FFF78AFCE06940F40010E061E069002229
:1012100000F40010049005211F2000F0ADF81F20FD
:1012200000F09CF800220521202000F0A5F82020E5
:1012300000F094F806B010BD0054004000100240C9
:10124000000C0140704770470248816802781144E1
:101250008160704708000020074810B5016841F020
:1012600010010160032000F0A7F80F2000F006F83D
:1012700000F050F8002010BD0020024030B50546B7
:101280001F4887B0C16941F02001C161C06906A94A
:1012900000F02000009001A800F0ACF90498B0B173
:1012A00000F0C8F940001749174AB0FBF1F11748A0
:1012B000491E0260416040F2E7320021C0E903218B
:1012C0008160816100F08EFB040003D015E000F026
:1012D000B1F9E8E70D4800F0B3FB04000DD1372069
:1012E00000F03CF8102D07D200222946372000F0EC
:1012F00043F80748056000E0012407B0204630BDF0
:101300000010024040420F0000140040F80400208A
:101310000C0000200F4808B5816941F0010181618E
:10132000816901F001010091C16941F08051C16101
:10133000C069002200F0805000900F21901E00F044
:101340001BF80548416821F0E06141F000714160FF
:1013500008BD00000010024000000140002809DB29
:1013600000F01F02012191404009800000F1E020BF
:10137000C0F8001170470000F0B40E4B1B680C461B
:10138000C3F30223C3F10705042D00D90425191D59
:10139000072901D2002300E0DB1E012606FA05F131
:1013A000491E214099409E40761E16403143F0BCB4
:1013B00001F037BE0CED00E0064900F007020868B6
:1013C0004FF6FF03184040EA0220034A104308602A
:1013D000704700000CED00E00000FA052DE9F8432D
:1013E00005460078354CC00754D0E0690026C0009F
:1013F00008D4E06940F08050E061E069012600F027
:10140000805000902E480168C90512D401688046BA
:1014100041F480710160FFF789FC074605E000BFD9
:10142000FFF784FCC01B642823D8D8F80000C0054F
:10143000F6D5206A10F4407021D0A98801F44071DB
:1014400081421CD0206A1F49012220F440700A60AA
:1014500000220A602062C00711D0FFF767FC074630
:1014600041F2883808E000BFFFF760FCC11B41452E
:1014700002D90320BDE8F883206A8007F4D5206AEA
:10148000696820F44070084320621EB1E06920F0D2
:101490008050E0612878800705D56068A96820F44D
:1014A0004040084360602878C00605D560686969D7
:1014B00020F48000084360600020DBE70010024059
:1014C00000700040400442422DE9F0470F460500FD
:1014D00061D0434E306800F00700B84209D230684E
:1014E00020F0070038433060306800F00700B84251
:1014F00051D128683B4C810712D5400703D560685D
:1015000040F4E06060602878000703D5606840F42C
:10151000605060606068A96820F0F0000843606077
:101520002878C00728D06868012810D021680228D0
:1015300010D0890700292EDA616821F003010143E8
:101540006160FFF7F3FB804641F288390DE02168C6
:101550008903EFE78901EDE7FFF7E8FBA0EB08015E
:10156000494502D90320BDE8F0876068696800F04A
:101570000C00B0EB810FEFD1306800F00700B842EB
:101580000BD9306820F0070038433060306800F035
:101590000700B84201D00120E5E72878400705D5CB
:1015A0006068E96820F4E06008436060287800071C
:1015B00006D56068296920F4605040EAC100606087
:1015C00000F058F86168084AC1F30311515CC84043
:1015D0000649086006480068FFF750FE0020C2E791
:1015E0000020024000100240163B000814000020BA
:1015F0000C0000200F2202600C4A536803F0030322
:101600004360536803F0F0038360536803F4E063BE
:10161000C36052684FF4E06303EAD20202610448F7
:10162000006800F0070008607047000000100240EA
:10163000002002400448054900684968044AC1F393
:101640000221515CC8407047140000200010024085
:10165000263B00080448054900684968044AC1F36C
:10166000C221515CC84070471400002000100240A5
:10167000263B00080E4A51680E4801F00C03042B6B
:1016800011D0082B0FD10C48C1F38343C903C05CB0
:101690000AD55168084AC1F34041921E515C054A7F
:1016A0005043B0FBF1F070470449484370470000D5
:1016B0000010024000127A00063B000800093D00BD
:1016C0002DE9F84F040070D02078C04DC00749D0F4
:1016D0006868C0F38100012807D06868C0F3810002
:1016E000022809D16868C00306D52868800339D567
:1016F00060680028E7D035E06068B0F5803F0BD027
:1017000010B1B0F5A02F11D0286820F480302860E7
:10171000286820F4802002E0286840F480302860A7
:10172000606890B1FFF702FB06460AE0286840F4C3
:1017300080202860F0E700BFFFF7F8FA801B6428DC
:1017400073D828688003F7D50CE0FFF7EFFA064658
:1017500005E000BFFFF7EAFA801B6428F0D828688C
:101760008003F7D420789A4E80074FF001094FF09C
:10177000000839D5686810F00C0F07D06868C0F30E
:101780008100022809D16868C00306D42868800750
:1017900014D52069012808D110E02069B0B1C6F83D
:1017A0000090FFF7C3FA074605E00AE1FFF7BEFA2B
:1017B000C01B0228C4D828688007F7D5286861694B
:1017C00020F0F80040EAC10028600DE0C6F8008073
:1017D000FFF7ACFA074604E0FFF7A8FAC01B02289F
:1017E00023D828688007F7D4207800072CD57948BB
:1017F000A169D9B1C0F80090FFF798FA074604E054
:10180000FFF794FAC01B02280FD8686A8007F7D543
:1018100071484FF4FA510068B0FBF1F0009000BF3E
:101820000098411E0091FAD20EE080E0C0F80080DE
:10183000FFF77CFA074604E0FFF778FAC01B02289E
:1018400075D8686A8007F7D42078400760D5E869C2
:101850000027C00008D4E86940F08050E861E869DA
:10186000012700F0805000905C480168C90513D43E
:101870000168834641F480710160FFF757FA8246A0
:1018800006E000BFFFF752FAA0EB0A0064284ED82A
:10189000DBF80000C005F5D5E06801280AD008B1E2
:1018A000052813D0286A20F001002862286A20F059
:1018B000040002E0286A40F001002862E06841F27A
:1018C000883B98B1FFF732FA82460BE0286A40F075
:1018D00004002862EEE700BFFFF728FAA0EB0A0138
:1018E00059455AD8286A8007F6D50CE0FFF71EFA4A
:1018F000824605E0FFF71AFAA0EB0A0159454CD8D9
:10190000286A8007F6D41FB1E86920F08050E861AA
:10191000E06988B36968C1F38101022944D00228D3
:10192000C6F8608004D0FFF701FA044638E034E0DE
:10193000FFF7FCF9074604E0FFF7F8F9C01B02289F
:101940002BD828688001F7D4206AB0F5803F05D1F4
:101950006868A16820F4003008436860D4E9080191
:101960000843696821F4741108436860C6F8609000
:10197000FFF7DCF9044606E025E000BFFFF7D6F9E3
:10198000001B022809D828688001F7D51BE000BF9A
:10199000FFF7CCF9001B022802D90320BDE8F88F1D
:1019A00028688001F4D40EE00128F7D06868226A24
:1019B00000F48031914204D1616A00F470108842D1
:1019C00001D00120EAE70020E8E700000010024013
:1019D0000000424280044242140000200070004097
:1019E0007047704710B5040003D094F83D0010B163
:1019F00007E0012010BD002084F83C00204600F0E4
:101A00001EF8022084F83D00211D206801F0C2F973
:101A1000012084F8460084F83E0084F83F0084F8F2
:101A2000400084F8410084F8420084F8430084F8C0
:101A3000440084F8450084F83D00002010BD704744
:101A400090F83D10012901D001207047022180F853
:101A50003D100168CA6842F00102CA6000680E4980
:101A600088420ED00D4988420BD0B0F1804F08D08B
:101A70000B49884205D00B49884202D00A49884266
:101A800004D1816801F00701062903D0016841F003
:101A90000101016000207047002C0140003401402A
:101AA0000004004000080040000C004070472DE991
:101AB000F04104460068C66805694FF00007A907B1
:101AC00013D5B10711D5F91E0161012020772068D7
:101AD00080698007204602D0FFF7E8FF04E000F0AD
:101AE0007EF8204600F07CF82777680716D5700747
:101AF00014D521686FF00400086102202077206867
:101B0000806910F4407F204602D0FFF7CFFF04E049
:101B100000F065F8204600F063F82777280715D510
:101B2000300713D521686FF0080008610420207782
:101B30002068C0698007204602D0FFF7B7FF04E0A5
:101B400000F04DF8204600F04BF82777E80616D550
:101B5000F00614D521686FF0100008610820207786
:101B60002068C06910F4407F204602D0FFF79EFF36
:101B700004E000F034F8204600F032F82777E80758
:101B800008D0F00706D021686FF0010008612046F8
:101B900000F028F8280608D5300606D521686FF031
:101BA000800008612046FFF71BFF680608D5700615
:101BB00006D521686FF040000861204600F01CF84F
:101BC000A8060AD5B00608D521686FF02000086184
:101BD0002046BDE8F041FFF704BFBDE8F081704743
:101BE0007047000000680349884201D1FFF72CBB11
:101BF00070470000001400407047704770470000B5
:101C0000F8B5016804460868CA684B6910F00F0F00
:101C10004FF0000559D003F0010602F490773743E6
:101C200065D0C10705D0D10503D5616C41F0010134
:101C30006164410705D5D90703D0616C41F0020109
:101C40006164810705D5D90703D0616C41F00401B7
:101C50006164010707D502F02001314303D0616CB4
:101C600041F008016164616C00293AD0800604D516
:101C7000900602D5204601F00AF920684069616C9F
:101C8000C0F38010090700D460B3204601F0D8F8F3
:101C900020684069400621D52068143050E8001FB4
:101CA00021F0400140E80012002AF5D1E06BA8B114
:101CB0006D494163E06BFEF731FD002811D0E06B08
:101CC000416B01B0BDE8F040084783060FD593068D
:101CD0000DD52046BDE8F84001F0D9B82046FFF701
:101CE0008DFFF8BD2046FFF789FF6564F8BD266BC0
:101CF0002023012E7CD1C6067AD5D60678D5086871
:101D00004868009048694FF00206400640D5E16BF4
:101D1000086840680004000CE8D0A28D8242E5D932
:101D2000E085886920282DD020680C3050E8001FFD
:101D300021F4807140E80012002AF5D120681430A7
:101D400050E8001F21F0010140E80012002AF5D1FF
:101D50002068143050E8001F21F0400140E80012D4
:101D6000002AF5D184F84230256320680C3050E811
:101D7000001F21F0100140E80012002AF5D1E06BAD
:101D8000FEF7A8FC6663A08DE18D401A81B22AE0BF
:101D9000A08DE18D401A81B2E08D0028A6D00029E7
:101DA000A4D022680C3252E8000F20F4907042E870
:101DB0000007002FF5D12068143050E8002F22F0E2
:101DC000010240E80027002FF5D184F84230256356
:101DD00020680C3050E8002F22F0100240E8002369
:101DE000002BF5D166632046FFF707FFF8BDFFE73C
:101DF00005062BD5150629D594F841002128F5D1E3
:101E0000A068B0F5805F01D12069B0B1206A411CA3
:101E10002162216800784860E08C401E0004000CBC
:101E2000E084E3D12068C16821F08001C1602068AE
:101E3000C16841F04001C160D8E7206A0088C0F362
:101E400008004860206A801C2062E5E74006CDD586
:101E50005006CBD5CA68204622F04002CA6084F8FA
:101E6000413000F0FCF8C1E7312E000870B50400E5
:101E700004D094F84100002510B106E0012070BDA7
:101E800084F84050204600F023F8242084F84100D4
:101E90002068C16821F40051C160204601F058F863
:101EA0002068016921F4904101612068416921F0B5
:101EB0002A0141612068C16841F40051C160656434
:101EC000202084F8410084F842006563002070BD42
:101ED0002DE9F04186B00025009501950295039506
:101EE0000446DFF860C10368574802210322574FB8
:101EF00080264FF0100863454CD1836943F480433A
:101F00008361836903F480430493836943F004038A
:101F100083618069039200F0040004900802CDE917
:101F2000000169463846FEF7F7FDF000CDE90005EF
:101F3000694638460295FEF7EFFD464F4448C7E92B
:101F40000005C7E902563D617D61BD613846FD610E
:101F5000FEF7A4FD08B1FEF780FAE7637C623D4F0F
:101F60003B4844371438C7E902563D617D61BD6185
:101F7000FD61C7E900083846FEF790FD08B1FEF79D
:101F80006CFAA7630022052125207C62FFF7F4F993
:101F9000252051E0DFF8C0C063454FD1C36943F449
:101FA0000033C361C36903F400330493836943F0CE
:101FB000040383618069039200F00400049004200C
:101FC000CDE9000169463846FEF7A6FD0820CDE9B7
:101FD0000005694638460295FEF79EFD1D4F1C48D8
:101FE00088371430C7E90005C7E902563D617D61B5
:101FF000BD613846FD61FEF751FD08B1FEF72DFACF
:10200000E7637C62134F1248CC372830C7E9025689
:102010003D617D61BD61FD61C7E900083846FEF79D
:102020003DFD08B1FEF719FAA7630022052126201D
:102030007C62FFF7A1F92620FFF790F906B0BDE812
:10204000F08100000038014000100240000801400B
:1020500058000240E80300200044004070477047E9
:10206000FEE700000148FEF769BE000004030020FF
:102070000148FEF7C5BE00000403002038B5406AE1
:10208000002190F83D202B4B46F2A8141B68B3FBAF
:10209000F4F3C3EBC30303EB830300933BB15B1E79
:1020A000009303681B689B0505D5009BF6E7036C4E
:1020B00043F020030364436B03B19962836B03B164
:1020C000996203681C6824F480641C604185436B3A
:1020D00003B15963836B03B1596303681C6824F02F
:1020E00001041C6090F83D402023602C0BD0282474
:1020F00034EA02020FD080F83D3080F83E1000BF75
:10210000FEF796FF38BD80F83D3080F83E10016440
:10211000FEF712FE38BD0268136843F00103136036
:102120000268136843F480631360016380F83D40E4
:10213000E6E700001400002000684169C943090671
:1021400001D400210161704770B5044690F83D004C
:1021500094F83E10102901D0402906D1222804D13C
:1021600021680A6822F400620A60282131EA00022C
:102170004FF000054FF0200626D021684968090578
:1021800005D4602803D084F83D6084F83E50256370
:1021900020684168090537D5416821F40061416034
:1021A000606B90F821203C49012A11D04163606B9B
:1021B000FEF7B4FA38B32068016821F0010101602C
:1021C00084F83D60606B1CE0256384F83D10DFE718
:1021D000A06B4163A06BFEF7A1FAA0B12068416932
:1021E000C943490605D40069616A0870606A401CE9
:1021F00060622068016821F00101016084F83D609F
:10220000A06B416B884710E094F83D10602910D016
:102210004169C943490605D40069616A0870606A6A
:10222000401C60622046FEF703FF206CC1071CD1F2
:1022300015E084F83D6025644169C943490605D429
:102240000069616A0870606A401C60622068016809
:1022500021F0010101602046FEF76EFDE5E78107F0
:1022600003D4410701D4000704D52068416821F454
:10227000E061416094F83D00216C49070BD52828A6
:1022800009D10648E062256384F83D6084F83E5039
:102290002046FEF793FF70BD7D2000080000FFFF81
:1022A00010B5C26A438D0168042B06D0438D032B01
:1022B00008D0438D022B1DD012E04A6822F48062C0
:1022C0004A600CE04B6823F480634B60042A06D01C
:1022D000022A04D001680A6822F480620A60016858
:1022E0000969426A1170416A491C4162418D491E67
:1022F000418510BD012A34D0102A32D0042A34D0AE
:10230000022A32D00B6843F400730B60016809693C
:10231000436A1970416A491C4162438D5B1E4385C3
:1023200003681B690B70416A491C4162418D491E5B
:10233000418501684B6823F440734B60202180F88D
:102340003D1090F83E300021402B80F83E1010D018
:10235000082A02D0202A00D012210163FEF72FFFA5
:1023600010BD0B6823F48063CFE70B6843F48063F0
:10237000CBE70163FEF725FF10BD000038B590F8EC
:102380003D10222910D1C36A418D03290DD901685E
:102390000969426A1170416A491C4162418D491EB6
:1023A0004185418D032906D038BDC26A022A02D078
:1023B000012906D029B10068416821F4806141609B
:1023C00038BD2A4A46F2A81400211268B2FBF4F282
:1023D00002EB8202009202682024009D6D1E00958F
:1023E00026D01568AD05F8D4156825F4806515600C
:1023F0000268556825F4E065556002681269456A0F
:102400002A70426A521C4262428D521E428580F8F6
:102410003D4090F83E2080F83E10402A21D0082B05
:1024200002D0202B00D012210163FEF7C8FE38BD78
:10243000036C43F020030364536823F4E0635360A8
:1024400002681269436A1A70426A521C4262428DE3
:10245000521E428580F83D4080F83E10FEF7E8FDB0
:1024600038BD0163FEF7ADFE38BD0000140000204A
:1024700010B5C26A90F83D1021290BD1418D51B1A0
:10248000416A026809781161416A491C4162418DC3
:10249000491E418510BD20230021082A13D0202A7F
:1024A00011D012F5803F0ED00268546824F4E06425
:1024B00054601122026380F83E1080F83D3000BF66
:1024C000FEF77EFE10BD0268546824F4E064546098
:1024D0000268146844F400741460016380F83D30AD
:1024E00090F83E2080F83E10402AE9D1FEF76AFEBF
:1024F00010BD000010B590F83D1090F83E30C26A53
:10250000048DB4B1212903D0402B11D122290FD140
:10251000418DE1B390F83E10402942D0416A0268F3
:1025200009781161416A491C4162418D491E41850A
:1025300010BD2129E8D120230021082A13D0202A08
:1025400011D012F5803F0ED00268546824F4E06484
:1025500054601122026380F83E1080F83D3000BFC5
:10256000FEF72EFE10BD0268546824F4E064546047
:102570000268146844F400741460016380F83D300C
:1025800090F83E2080F83E10402AE9D100E002E0B9
:10259000FEF718FE10BD0068416821F480614160BB
:1025A00010BDBDE8104000F0F3B8000078B590F819
:1025B0003E50C26A046B90F83D6000230168222EF1
:1025C00073D1066D0EB9402D6FD0056D1DB905692B
:1025D000B5F5404F1BD0458D95B3468D484D012E26
:1025E00020D0448D022C4DD00C6844F480640C60E3
:1025F00001684C68240579D5AA4273D0012A71D0AC
:10260000082A6FD0102A6DD0202A6BD06EE04A695C
:102610008A6900920A6842F480720A60016D491C5E
:10262000016578BDAA4214D10A6822F480620A606A
:1026300001684A68120504D50A6822F4806217E02E
:10264000FFE74A698A6900920A6842F400720A60E8
:1026500050E0082A10D0202A0ED0122C0AD0042ACA
:1026600003D0022A01D0102AE6D10A6842F480621F
:102670000A603BE0012ADFD00A6822F480620A6027
:102680000168DEE7042A11D0022A0FD0102A0DD0EB
:102690000C6844F400640C6001684C698C69009417
:1026A0000C6824F480640C6008E025E00C6844F4B5
:1026B00080640C6001684C698969009101684C680C
:1026C000240517D5AA4207D0012A05D0082A03D02D
:1026D000102A01D0202A0DD14A6842F480524A6063
:1026E00008E0FFE74A6842F480524A6001684A699C
:1026F00089690091036578BD48698869009078BD53
:102700000000FFFF90F83E10402910D00169B1F59C
:10271000804F19D0016DA9B3016D012910D1416C11
:102720005FF0F10201F4407142EAD11106E0016D5F
:102730000029416C05D0C9B241F001010068016176
:10274000704701F0FE01F9E790F83D102129416C36
:1027500009D0C9B241F0010102681161416B29B190
:10276000896A49B902E001F0FE01F5E7816B0029B1
:10277000E6D0896A0029E3D00068416841F400612D
:1027800041607047FFE7416CF02201F44071CBE7F4
:1027900010B590F83D10026D4AB1026D012A14D0B7
:1027A000026D022A16D0BDE81040FFF7C5BCC16C0F
:1027B0000129816C02D0C1F3072108E00268C9B287
:1027C0001161016D891C016510BD816CC9B202687F
:1027D000116123E022291CD0428D0AB1212920D089
:1027E000428D002AF0D12129EED101684A6822F4F5
:1027F000E0624A6001680A6842F400720A600021DF
:102800000163202280F83D2080F83E10FEF7DAFCBC
:1028100010BD01680A6842F480720A60016D491CAB
:10282000D1E7416A026809781161416A491C416235
:10283000418D491E418510BD38B50C4690F83D20AC
:1028400000212825954302680B4605D051699169FE
:10285000009180F83C3038BD556825F4806555609E
:10286000E243540700D50121120601D5828900E018
:10287000028B80F83C3092B2FEF75FFA38BD000060
:102880002DE9F04190F83D300446C26A002120262F
:102890001E4F00686FF48065082A01D0202A01D1FC
:1028A000282B04D0212B17D04561BDE8F081E762C9
:1028B000426822F4E0624260206845612068026854
:1028C00022F480620260216384F83D6084F83E1047
:1028D0002046FEF773FCE8E7E7622122226384F8D2
:1028E0003D6084F83E10416821F4E0614160206859
:1028F00045612068016821F4806101602046FFF78E
:102900001BFC2046FEF79FFCCFE700000000FFFF06
:10291000F8B590F83D6004460068416821F4E06134
:1029200041602068002541690091016841F0010182
:1029300001602068016821F48061016020684168BD
:10294000090520D5474F222E48D02A2E46D0616B4C
:10295000096849686185618D19B1216C41F00401F4
:102960002164416821F400614160606BFDF76EFFF6
:10297000012808D0606B4763606BFDF7CFFE10B194
:10298000606B416B8847608D08B320684169C9431B
:10299000490708D40069616A0870606A401C606277
:1029A000608D401E608520684169C943490608D48E
:1029B0000069616A0870606A401C6062608D401E38
:1029C0006085608D18B1206C40F004002064206C9C
:1029D00000B32046BDE8F840FFF7B6BBA16B09681D
:1029E00049686185618D19B1216C41F00401216450
:1029F000416821F400614160A06BFDF727FF0128C9
:102A0000C1D0A06B4763A06BFDF788FE0028BAD049
:102A1000A06BB6E72A2E06D12563282084F83D0056
:102A20002046FEF70FFC94F83D10202028290DD0F9
:102A3000216B222901D0222E07D1256384F83D0085
:102A400084F83E502046FEF7FDFBF8BD0649E162E2
:102A5000256384F83D0084F83E502046FEF7AEFB27
:102A6000F8BD00007D2000080000FFFF0B4C0C4E5D
:102A70004FF4FA7504212046FEF74AF9284600F083
:102A8000FBFA20213046FEF743F904212046FEF7E9
:102A90003FF9284600F0F0FAECE70000000C014096
:102AA000001001403EB500241148009401940294A6
:102AB0000E498460016004730475012505614FF4BB
:102AC00060214460C161FDF749FD08B1FDF7C5FC17
:102AD0000B20CDE90005694602940548FDF7C0FCCE
:102AE000002801D0FDF7B9FC3EBD000000240140E4
:102AF000D4020020154808B5416941F00101416147
:102B00004069002200F00100009005210E20FEF730
:102B100033FC0E20FEF722FC002205210F20FEF7D9
:102B20002BFC0F20FEF71AFC002205211020FEF7D7
:102B300023FC1020FEF712FC002205211120FEF7D5
:102B40001BFCBDE808401120FEF708BC0010024045
:102B500010B58EB01C220B496846FDF7A3FB00217F
:102B6000684600F095FA084C06491C2220601C318A
:102B700007A8FDF797FB002107A800F089FA60601D
:102B80000EB010BDCC3A0008000000202DE9F04145
:102B900086B0002420480094019402940394816933
:102BA00041F010018161816901F010010491816996
:102BB00041F004018161816901F00401049181699E
:102BC00041F0080181618069144F00F00800049011
:102BD000002220213846FEF7A3F8DFF844800022C7
:102BE00004214046FEF79CF8202001250226CDE96D
:102BF0000005CDE9024669463846FDF78DFF042001
:102C0000CDE90005CDE9024669464046FDF784FF5F
:102C100006B0BDE8F0810000001002400010014045
:102C2000000C01400D4810B50B4901600C49416092
:102C300000214FF480428160C0E90312416181614B
:102C4000C1610162FEF7F6F9002803D0BDE810402B
:102C5000FDF703BC10BD0000005400400403002039
:102C6000A08601000C4810B50A4901604FF4E1311B
:102C70004160002181600C22C160C0E904128161C1
:102C8000C161FFF7F3F8002803D0BDE81040FDF75D
:102C9000E4BB10BD00380140580300200C4810B5BB
:102CA0000A4901604FF4E1314160002181600C224A
:102CB000C160C0E904128161C161FFF7D7F8002843
:102CC00003D0BDE81040FDF7C8BB10BD0044004074
:102CD000A0030020FEE7FEE7012000F0CDF9FBE7AE
:102CE00010B5502080F31188BFF34F8FBFF36F8F63
:102CF00000F024FE18B104494FF080500860002015
:102D000080F3118810BD000004ED00E030B595B0EF
:102D100028216846FDF7F8FA14210AA8FDF7F4FA0D
:102D200018210FA8FDF7F0FA01210804CDE90010E1
:102D30000025029502240491CDE907404FF4E010EC
:102D400009906846FEF7BCFC08B172B6FEE70AA916
:102D50000F2081E831004FF48060CDE90D0502219C
:102D60000AA8FEF7B1FB08B172B6FEE74FF40040C7
:102D700011900F940FA8FEF731FB002801D072B616
:102D8000FEE715B030BD70470148FEF790BE000069
:102D9000F8040020F0B50268204C214D214E224F4E
:102DA000224B4FF0804CA04209D0984207D060459A
:102DB00005D0A84203D0B04201D0B84204D122F0DD
:102DC000700E4A6842EA0E02A04209D0984207D02B
:102DD000604505D0A84203D0B04201D0B84203D12B
:102DE00022F44075CA682A434D6922F080022A43C2
:102DF00002608A68C2620A688262A04201D0984278
:102E000001D109690163012141610169C90703D049
:102E1000016921F001010161F0BD0000002C0140B9
:102E20000004004000080040000C00400034014055
:102E300010B5406A0021C185C184FEF7DFFE10BDD8
:102E400001680C3151E8002F22F4907241E8002310
:102E5000002BF5D10168143151E8002F22F0010256
:102E600041E80023002BF5D1016B012909D101684C
:102E70000C3151E8002F22F0100241E80023002B12
:102E8000F5D1202180F8421000210163704708B578
:102E900090F84210222901D0022008BD82684FF428
:102EA00080539A4201D1016921B1816A9A421BD0B3
:102EB0004AB10AE00268816A5268C2F308020A80D5
:102EC000816A891C08E0026972B10268526802F0E6
:102ED0007F020A70816A491C8162C18D491E090402
:102EE000090CC18503D01BE002685268F1E7016854
:102EF000CA6822F02002CA600168CA6822F480729F
:102F0000CA6001684A6922F001024A61202180F802
:102F1000421000214163026B012A03D0FFF79EF8A3
:102F2000002008BD016301680C3151E8002F22F038
:102F3000100241E80023002BF5D101680A68D2068F
:102F400002D50A6849680091818DFEF756FEE7E7D1
:102F500070B5044600680169E26821F440511143EC
:102F600001612169A0680843616908432168CA6852
:102F700041F20C639A430243CA6020684169A26926
:102F800021F44071114341611E492068884202D1F9
:102F9000FEF760FB01E0FEF74DFB00EBC00101EB2B
:102FA0000012606864218000B2FBF0F3B3FBF1F320
:102FB0006FF018067343B2FBF0F5B2FBF0F605EBC9
:102FC0008305322303EB0515B5FBF1F5B6FBF1F6EE
:102FD00005F0F00505EB0615B2FBF0F6B2FBF0F0DC
:102FE000B0FBF1F06FF01802504306EB800003EBEA
:102FF0000010B0FBF1F0216800F00F002844886059
:1030000070BD0000003801400148FEF7F9BD000026
:10301000580300200148FEF7F3BD0000A003002084
:10302000FEE70907090E002804DB00F1E02080F824
:103030000014704700F00F0000F1E02080F8141D2C
:103040007047FEF709F9FFF761FEFFF79FFDFFF7F5
:1030500051FDFFF707FEFFF721FEFFF723FDFFF706
:10306000E1FDFFF775FD00F00EF8FEE701460020D8
:10307000842900D0C81C704710B500B9012000F0A9
:103080001FFB002010BD10B500F040FB002010BD5C
:103090007FB50D4604464169B0F9080081B1A169C8
:1030A00071B1FFF7E3FFD4E905128DE80700D4E919
:1030B00000102B46226900F016FC039004B070BD8E
:1030C000FFF7D4FF03A9CDE90001208A2B4682B285
:1030D000D4E9001000F0DAFB012801D00020EDE770
:1030E0000398EBE72DE9F041184C0F460546E668DA
:1030F0002068001D00F01CFA38B9206890F82C10E8
:1031000001208840216981432161681C07D137B1C2
:103110002168BDE8F0410E48091D00F04DBA206855
:103120003544B5424560216805D2A06BBDE8F04149
:10313000091D00F029BA606B091D00F025FAA06A8C
:10314000854200D2A562BDE8F08100001800002091
:103150001C0600202DE9F041054600F039FA2E4CFE
:10316000A068401CA06020682C4F10B1606940B37B
:103170002DE02560A068012829D1002606EB8600F5
:1031800007EB800000F0F2F9761C072EF6D32348F7
:103190008C3000F0EBF92148A03000F0E7F91F482F
:1031A000B43000F0E3F91D48C83000F0DFF91B48E7
:1031B000DC3000F0DBF919488C3060631430A06318
:1031C00005E02068E96AC06A884200D82560606A24
:1031D000401C6062E96A0120226988401043206136
:1031E00001EB810007EB8000291D00F0E5F900F0FC
:1031F0000FFA606900280CD02068E96AC06A88422A
:1032000007D207494FF080500860BFF34F8FBFF3DC
:103210006F8FBDE8F08100001800002040050020FD
:1032200004ED00E010B5044690F8510058B10128B3
:103230000CD002280FD0502080F31188BFF34F8F9D
:10324000BFF36F8FFEE7206B00F0F6F92046BDE874
:10325000104000F0F1B910BD10484FF44061420732
:1032600006D0C01D0D4920F00700411AC1F540618C
:103270000B4A00230144C2E900030839183A21F03F
:10328000070111604B600B600B1AC0E900139360DB
:103290004FF000405360506170470000300600203E
:1032A0006C000020144E154CA6F1C8074FF0805852
:1032B000DFF84C9012E000BF00F08AF9F068C568B2
:1032C000281D00F035F9A068401EA0606068401E0F
:1032D000606000F09DF92846FFF7A4FF60680028B1
:1032E000EAD138680128F9D9C9F80080BFF34F8FB7
:1032F000BFF36F8FF2E700000806002018000020DF
:1033000004ED00E02DE9F0479A46DDE909848146A5
:103310006FF00303206B03EB82021044089E20F041
:103320000707780707D0502080F31188BFF34F8F2D
:10333000BFF36F8FFEE7002561B1002023180A5C00
:1033400083F834200A5C12B1401C1028F6D384F8AC
:10335000435001E084F83450072E00D30626E6627D
:10336000C4E91165201D00F00CF904F1180000F00B
:1033700008F92461C6F107006462A061E56484F87D
:10338000505052464946384600F0C0F82060B8F127
:10339000000F01D0C8F80040BDE8F08730B51149F2
:1033A00000E011460A688242FBD34B685C188442F5
:1033B00003D1406818444860084643681C1894428A
:1033C00009D1084C183C2468A24209D052681A441A
:1033D00042600A6812680260814200D0086030BD15
:1033E0000460F9E76C0000200648416B096829B1C8
:1033F000416BC968C9684968816270474FF0FF3105
:10340000FAE700001800002008484068401C4FF010
:10341000500080F3118804D0BFF34F8FBFF36F8F3C
:10342000FEE7BFF34F8FBFF36F8FFEE774000020FE
:103430002DE9F0410546002700F09EF9324E306834
:1034400008B9FFF709FF706905424ED1C5B30835C9
:1034500068070ED005F00700C0F1080005446807B2
:1034600007D0502080F31188BFF34F8FBFF36F8FC9
:10347000FEE72DB37068854237D8234818300146DF
:103480000C6801E020460C466168A94202D221681E
:103490000029F7D131688C4227D007682168016084
:1034A00060680837411B10290FD96019420708D0FE
:1034B000502080F31188BFF34F8FBFF36F8FFEE76B
:1034C00013E041606560FFF769FF61687068401A4A
:1034D0007060B268904200D2B06070690143002011
:1034E000C4E90001F068401CF06000F08DFA780734
:1034F00007D0502080F31188BFF34F8FBFF36F8F39
:10350000FEE73846BDE8F0815400002010B5031FE7
:103510004FF080741C601B1F21F001011960191FFE
:10352000024B0B60143940380A6010BD09340008A2
:10353000D0E9013201699A60D0E901235A604A68F2
:10354000824201D182684A60002202610868401EFE
:103550000860086870470000034B036003F15400E3
:1035600008608020106070478000002000F1080192
:103570004FF0FF32C0E90112C1600161002101601A
:10358000704700210161704730B50B685A1C02D0AA
:1035900000F1080202E0026904E02246546825684E
:1035A0009D42FAD953684B6099608A605160086106
:1035B0000168491C016030BD42684A6093688B60B5
:1035C00093685960916008610168491C0160704707
:1035D000502080F31188BFF34F8FBFF36F8F0A49DC
:1035E0004868401C486001280CD10848006810F069
:1035F000FF0F07D0502080F31188BFF34F8FBFF328
:103600006F8FFEE7704700007400002004ED00E0BB
:103610000849486828B1401E486001D180F31188EC
:103620007047502080F31188BFF34F8FBFF36F8F27
:10363000FEE700007400002070B500282AD0164D67
:10364000A0F1080460686969084207D1502080F33E
:103650001188BFF34F8FBFF36F8FFEE722683AB137
:10366000502080F31188BFF34F8FBFF36F8FFEE7B9
:103670008843606000F080F86068696808446860AA
:103680002046FFF78BFE2869401C2861BDE870408A
:1036900000F0BAB970BD0000540000204FF0E020E7
:1036A00000210161816105494FF47A720968B1FB1B
:1036B000F2F1491E416107210161704714000020A9
:1036C00010B5020014D00F48006B38B1502080F3C1
:1036D0001188BFF34F8FBFF36F8FFEE700F04CF8F8
:1036E00000211046FFF7FEFC00F08EF9002807D1FC
:1036F00005494FF080500860BFF34F8FBFF36F8FC5
:1037000010BD00001800002004ED00E010B586B0E8
:103710000024039405AA04A903A80494FFF71CFF3E
:10372000DDE903010094CDE9011000230EA110484A
:10373000059A00F0D8F80F490028C86211D050202F
:1037400080F31188BFF34F8FBFF36F8F4FF0FF30BF
:10375000886201204861CC6006B0BDE8104000F0EE
:1037600041B806B010BD000049444C4500000000BF
:10377000A5320008180000200248016B491C0163B3
:1037800070470000180000201448016B11B101219E
:10379000C16170470021C1610169B1FA81F1C1F1D4
:1037A0001F0101EB81020E4951F822306BB101EB90
:1037B000820101F108034A6852684A609A4201D1C5
:1037C00052684A60D16801607047502080F31188C8
:1037D000BFF34F8FBFF36F8FFEE70000180000208C
:1037E000400500201CB5264908780190FF2008708C
:1037F00008788DF800009DF800009DF8002000F08A
:10380000F000904207D0502080F31188BFF34F8F13
:10381000BFF36F8FFEE79DF800001A4C00F05000D8
:1038200020700720A06005E09DF8002052008DF870
:103830000020401E9DF800201206F5D4A060032849
:1038400007D0502080F31188BFF34F8FBFF36F8FE5
:10385000FEE74FF44070A060019808700A480168C4
:1038600041F470010160016841F070410160FFF7AF
:1038700015FF00206060FCF7BBFC00201CBD0000B1
:1038800000E400E07400002020ED00E02DE9FF5F7F
:103890008346DDE90E87994616468A469000FFF773
:1038A000C7FD05001CD05420FFF7C2FD040014D052
:1038B0000020256384F85100CDE90240CDE900875E
:1038C0004B46324651465846FFF71CFD2046FFF74F
:1038D00041FC012004B0BDE8F09F2846FFF7ACFE94
:1038E0004FF0FF30F6E7F0B585B0DDE90B640A9DD7
:1038F000A6B1DCB1542700972663022684F85160F4
:10390000002604AFCDE90246CDE90057FFF7FAFCE7
:103910002046FFF71FFC049805B0F0BD502080F34F
:103920001188BFF34F8FBFF36F8FFEE7502080F3F6
:103930001188BFF34F8FBFF36F8FFEE72DE9F04182
:103940002F4C0026206B28B1A069401CA061304696
:10395000BDE8F081E5686D1CE56013D1606B00681F
:1039600038B1502080F31188BFF34F8FBFF36F8FB2
:10397000FEE7606BA16B6163A063206A401C20625C
:10398000FFF732FDA06ADFF87C80854209D3606BC7
:103990000068A0B1606BC068C7687868854211D2C2
:1039A000A0622068C06A00EB800158F8210001285D
:1039B00000D90126E0690028C9D00126C7E74FF0E9
:1039C000FF30EDE7381DFFF7B3FDB86A18B107F116
:1039D0001800FFF7ADFDF96A012022698840104305
:1039E000206101EB810108EB8100391DFFF7E4FD47
:1039F000F86A2168C96A8842C9D30126C7E700006E
:103A000018000020400500202DE9F0472C4D00242F
:103A10002746286B38B1FFF7DBFD286B401E286373
:103A2000286B40B146E0502080F31188BFF34F8FE0
:103A3000BFF36F8FFEE7A968224E0120D1B3A6F134
:103A4000B40980463068E8B1F068C46804F1180031
:103A5000FFF76EFD201DFFF76BFDE06A2A6908FA8B
:103A600000F11143296100EB800109EB8100211D68
:103A7000FFF7A2FDE06A2968C96A8842E2D3C5F867
:103A80001C80DFE70CB1FFF7AFFCAC6944B14646E0
:103A9000FFF754FF00B1EE61641EF9D10020A86168
:103AA000E86938B10849012738070860BFF34F8F2C
:103AB000BFF36F8FFFF7ACFD3846BDE8F08700001D
:103AC00018000020F405002004ED00E0383B000859
:103AD000D92C000800000000000000008000000059
:103AE0000000000000000000303B00086D2A0008C4
:103AF000FDFF00000000000080000000000000004A
:103B000000000000010202030405060708090A0B71
:103B10000C0D0E0F1010000000000000000001024C
:103B20000304060708090000000001020304000066
:103B30004C45445461736B0064656661756C7454E4
:103B400061736B00643B00080000002080000000EF
:103B50006C010008E43B0008800000201018000001
:103B600088010008000000000000000001000000C3
:103B7000100000000000000000127A0000000000A9
:103B80000000000000000000000000000000000035
:103B90000000000000000000000000000000000025
:103BA0000000000000000000000000000000000015
:103BB0000000000000000000000000000000000005
:103BC00000000000000000000000000000000000F5
:103BD000000000000000000000000000AAAAAAAA3D
:043BE00000000000E1
:0400000508000131BD
:00000001FF
